:020000020000FC
:02000000D8C066
:040038000C946D00B7
:040048000C947300A1
:100068002A2A2A2056657273696F6E20302E302036
:100078002D2032303136204F6374203231202A2A25
:100088002A1A437265617469766520436F6D6D6FD6
:100098006E73204174747269627574696F6E2D4E47
:1000A8006F6E436F6D6D65726369616C2D53686126
:1000B8007265416C696B6520342E3020496E746519
:1000C800726E6174696F6E616C204C6963656E73E2
:1000D80065000F934FB671604FBE0F9118954FB6DC
:1000E8001F930F93BF93AF93B1E0A3E10091330146
:1000F8001127A00FB11F1091C6001C9303950F3153
:1001080009F4002700933301AF91BF910F911F911C
:100118004FBE1895F894A89504B7007004BF0091D5
:10012800600008610093600000E00093600078942C
:10013800089533D0772788270DE105B90FE308B96B
:100148000CEF0BB9219A259A05E005BD02E004BD24
:100158000AEF07BD00916E00026000936E000DE586
:1001680010EC009387001093860084D000E8009379
:10017800800002E10093810078940895F89400E0EB
:100188000093C50003E30093C40006E00093C20097
:1001980008E90093C1007894089510E10027B0E0C1
:1001A800A0E00D931A95E9F7089508E00EBF0FEF48
:1001B8000DBFB0DFBEDF319944C0E0DF1BD2F6E0EF
:1001C800E8EB0ED2B1E0A0E104E00D9300EB0C9354
:1001D8001DD0BAD012D026D003D05DD075FDFDCF8A
:1001E80099D01123D1F31FD1C0F7D9D073FFF3CF22
:1001F800777F0CD0A9D001D0EECF009110011091DB
:1002080011010093890010938800089544D10402D5
:10021800F9D1F2E0E2E2E4D108954F433141484C8C
:100228003A201A000E944F0205020E940603F2E0DB
:10023800E0E40E94F402089520456E7465723A2045
:100248001A0018D060E270FFFECF7E7F6A95D9F75A
:100258003099FECF6FE370FFFECF7E7F6A95D9F7A6
:1002680010D0309BFECF68E070FFFECF7E7F6A958E
:10027800D9F7E7CF03E010E20093890010938800D4
:10028800089505E010EA0093890010938800089506
:10029800502E7E7F089545D07AD11D3021F4B1E0EB
:1002A800A0E070610895183141F4222D222399F3BA
:1002B8000E94EF022A95E1F7EECF183051F4222D73
:1002C800222351F32A95222E0E94EF0200E00E937A
:1002D800E3CF1F3709F4F3CF193031F437E010E2D8
:1002E80010D03A95E9F7D8CF1B3111F47062089510
:1002F800133109F4089521D076FF01C0CDCF01D084
:10030800CBCF222D203109F408952395222E1D9359
:1003180045D108951D91103011F4889408950894DA
:1003280008950027222420E1B1E0A0E00D932A954A
:10033800E9F7B1E0A0E07F7C08957064103218F00E
:100348001F3708F47F7B0895B1E0A0E1DD91CC91DF
:100358000E9422020E94B1010895182D13D0172D72
:100368000E94BE01162D0E94BE010895172D0E94FD
:10037800C601F8CF312E12950E94C601132D0E9496
:10038800C60108951F7000E3100F0E94D20208955D
:10039800113620F01B3710F4889410420895777FA7
:1003A800622D663068F40E94E50150F4B1E0A0E1E6
:1003B800DD93CD93CC93DD2311F00FEF0C93786090
:1003C8000895DD27CC27B1E0A0E01D910E94170217
:1003D80068F4312E0E94020268F0332D22270E9411
:1003E800140240F06A9589F7089408958894DD27E7
:1003F800CC2708950894DFEFCFEF08950E941002EC
:1004080050F0DF932F91CF933F9106D020F004D086
:1004180010F00E94140208958894CC1FDD1F0895DF
:10042800C30FD21F0895312E0E94CC01105318F02B
:100438001A3008F408958894132D08953FEF832EF9
:100448008394C051D742E0F7C05FD84D20EF205FBA
:10045800C85ED340E0F7C851DC4F732E7394C4567E
:10046800D040E0F7CC59722A20EF205FCA50E8F755
:10047800C65F622E6C2A0895312E8ADF105340F031
:100488001A3028F017501A3018F0103108F408956F
:10049800132D88940895D2D0FF91EF918894EE1F80
:1004A800FF1F159146D0CFD0159143D0D1D0889455
:1004B800F795E795EF93FF930895C0D0142F39D09F
:1004C800C2D0152F36D0C4D00895FF91EF918894EB
:1004D800EE1FFF1F15911A3151F41491103009F4D1
:1004E80031968894F795E795EF93FF93089556D042
:1004F800F1CF3F936F93331B69E0111F6A9521F485
:10050800232F6F913F910895331F321B18F4320F38
:100518008894F3CF0894F1CF1F93129501D01F91BF
:100528001F7060E3160F1A3310F067E0160F36D00D
:10053800089524E6DEDF112309F00BD01AE01F939B
:100548002F931F912F91D5DF04D01F932F931F91C5
:100558002F91106323D00895009132011091330137
:10056800101799F0BF93AF93B1E0A3E10091320166
:100578001127A00FB11F1C91AF91BF9103950F31A7
:1005880009F4002700933201089511270895009176
:100598003201109133011017D1F3E4CF0091C0005C
:1005A80005FFFCCF1093C600089500D01F931DE0EF
:1005B800F5DF1AE0F3DF09C000D01F9310E205C091
:1005C8001F9319E002C01F9317E0E8DF1F910895F9
:1005D8001F931CE2FACF1F9318E0E0DF18D0F5CF85
:1005E8001F9315911A3111F41F9108951030C9F312
:1005F800D5DFF7CFFF93EF93F6E0E6E7F1DFF6E01C
:10060800E0E818C0FF93EF93F6E0E6E813C0FF9325
:10061800EF93F6E0E4EA0EC0FF93EF93F6E0ECE820
:1006280009C0FF93EF93F6E0E2E904C0FF93EF936C
:10063800F6E0E6E9D5DFEF91FF910895FF93EF9398
:10064800F6E0ECE9F7CFFF93EF93F6E0E0EAF2CFBC
:10065800FF93EF93F6E0E2EAEDCFFF93EF93F6E036
:10066800E0EBE8CFFF93EF93F6E0E4EBE3CF1B5B1F
:10067800481A1B5B304A1A001B5B324A1A001B5B84
:10068800304B1A001B5B316D1A001B5B6D1A1B5B2C
:10069800376D1A001B5B1A003B1A481A1B5B315056
:1006A8001A001B5B314D1A001B371A001B381A0041
:1006B8003D3D3D3C3C3C546865205573656C657315
:1006C800732050726F6A656374203E3E3E3D3D3D27
:1006D8000D0A20547765616B207468652073657214
:1006E800766F20706F736974696F6E202E2E2E20BE
:0206F8001A00E6
:00000001FF
